:020000040800F2
:1000000030070020B50100085119000849190008FF
:100010004D190008710200082D1A000800000000A8
:100020000000000000000000000000005919000856
:100030007502000800000000551900085D1900084D
:10004000CF010008CF010008CF010008CF01000850
:10005000CF010008CF010008CF010008CF01000840
:10006000CF010008CF010008CF010008CF01000830
:10007000CF010008CF010008CF010008CF01000820
:10008000CF010008CF010008CF010008CF01000810
:10009000CF010008CF010008CF010008CF01000800
:1000A000CF010008CF010008CF010008CF010008F0
:1000B000CF010008CF010008CF010008CF010008E0
:1000C000CF010008CF010008CF010008CF010008D0
:1000D000CF010008211A0008CF010008CF01000855
:1000E000CF010008CF010008CF01000800F002F89E
:1000F00000F050F814A696E8000CB244B344DA4578
:1001000001D100F047F8BAE80F000FA696E83000DA
:10011000A5EB040504EB0607AAEB0704A7F101070A
:100120004FEA15154FEA3414A4F10104AC4201D38F
:1001300000F030F813F0010F18BFFB1A43F0010371
:1001400000F001F8DBE71847B01D0000D01D0000EB
:10015000103A24BF78C878C1FAD8520724BF30C8F3
:1001600030C144BF04680C60704700007047000055
:100170000023002400250026103A28BF78C1FBD8B0
:10018000520728BF30C148BF0B6070471FB51FBD65
:1001900010B510BD00F031F81146FFF7F7FF01F080
:1001A000CFFC00F04FF803B4FFF7F2FF03BC00F000
:1001B00057F800000948804709480047FEE7FEE776
:1001C000FEE7FEE7FEE7FEE7FEE7FEE7FEE7FEE707
:1001D00004480549054A064B7047000061190008AC
:1001E000ED0000083001002030070020300300201F
:1001F00030030020704770477047754600F02CF8B8
:10020000AE4605006946534620F00700854618B003
:1002100020B5FFF7DDFFBDE820404FF000064FF0AE
:1002200000074FF000084FF0000BAC46ACE8C009E7
:10023000ACE8C009ACE8C009ACE8C00921F007018E
:100240008D46704710B50446AFF300802046BDE8E8
:100250001040FFF7A8BF00000048704710000020C2
:1002600001491820ABBEFEE72600020070470000DF
:10027000FEE7000070470000014690F821000228C8
:1002800016D10868D1E90FC3026822F00E0202609D
:10029000026822F001020260012000FA03F2CCF8A9
:1002A000042081F821000020002281F820207047DE
:1002B000042088630120002281F82020704700007C
:1002C00090F82110022923D10268116821F00E0153
:1002D00011602F211368C4F202018A4240F2040126
:1002E000C4F2020123F00103136015DD3023C4F2D0
:1002F00002039A421CD04423C4F202039A421BD048
:100300005823C4F202039A421CD14FF4803321E0F7
:1003100004218163012070470823C4F202039A423A
:100320000ED01C23C4F202039A420BD1102311E019
:100330004FF480730EE000BF4FF480530AE000BF1B
:10034000012307E001F1680C4FF08073624508BF9C
:100350004FF480130B60416B4FF4807200290284CC
:1003600004BF0020704780B58847002080BD000092
:100370002DE9F04F82B00E68002E00F0FF8040F2B1
:100380000C4C40F2004E41F20042C4F2010CC4F2A7
:10039000010EC4F201020427002401234FF0000AD9
:1003A0004FF00009904208BF0327009742E000BFCA
:1003B000012704F00C030F229A402BEA020207FAED
:1003C00003F34FEA9A051A4346F825204E68F203D4
:1003D000DEF8002054BF22EA080242EA0802CEF802
:1003E0000020DEF80420B30354BF22EA080242EAE8
:1003F0000802CEF80420F302DEF8082054BF22EAF7
:10040000080242EA0802B302CEF80820DCF8002015
:100410004FF0010354BF22EA080242EA0802CCF876
:1004200000200E680AF1010A36FA0AF204F1040407
:1004300000F0A48003FA0AFB16EA0B08F1D04E681C
:100440004FF6FF72C1F21002964211DC122E55D8FF
:10045000DFE806F0340A4448545454545454545475
:1004600054545454544C5000D1F80C9046E000BF02
:100470004FF6FF72C1F2210296420FDC0022C1F258
:10048000110296421AD00022C1F21202964215D0F1
:100490000022C1F22102964210D02FE00022C1F2C8
:1004A000220296420AD00022C1F23102964205D0C1
:1004B0000022C1F23202964220D100BF8A684AB1BE
:1004C000012A14BFC0F814B0C0F810B04FF00809EA
:1004D00014E000BF4FF0040910E000BFCA6802F149
:1004E00008090BE04FF0000908E000BFCA6802F1FC
:1004F000040903E0CA6802F10C0900BF224606465F
:10050000B8F5807F24BF203A043637680F25954020
:1005100027EA050509FA02F22A433260CA79D206AF
:100520007FF57FAF41F21803C4F202031A68AEF5FB
:100530007E7642F001021A601A6802F0010201920E
:10054000019A2AF0030256F802B040F60002C4F203
:100550000102904210D040F60042C4F201029042E3
:100560003FF426AF41F20002C4F20102009F904224
:1005700008BF02271DE700BF00271AE702B0BDE849
:10058000F08F0000002A08BF0904016170470000D5
:1005900040F22810C2F200000068704740F20000EC
:1005A00040F22811C2F20000C2F2000100780A688D
:1005B000104408607047000080B542F20000C4F2A9
:1005C0000200016841F010010160032000F08CF886
:1005D0000F2000F005F800F027F8002080BD000093
:1005E00070B540F20006C2F2000640F2080132780F
:1005F000C2F200014FF47A730968B3FBF2F20446C9
:10060000B1FBF2F1084600F089FB0F2C4FF0010519
:1006100008D838B94FF0FF3021460022002500F0FD
:1006200037F87460284670BD82B041F21800C4F2F9
:1006300002000168022241F001010160016801F03D
:10064000010101910199416841F080514160406888
:1006500000F08050009000980420C4F2010001686E
:1006600062F31A61016002B070470000002848BFC1
:10067000704700F01F01012202FA01F11C2202EA78
:10068000D0004EF20012CEF20002815070470000FE
:1006900010B54EF60C5CCEF2000CDCF80030C3F363
:1006A000022E8EF00704042C28BF0424BEF103039D
:1006B0004FF0FF3E0EFA04F438BF0023A1439940E7
:1006C0000EFA03F39A43114300F00F0200F1604366
:1006D0000901043A03F564436244002848BF02F16B
:1006E0000C03197010BD00004EF60C51CEF2000143
:1006F0000A684FF6FF031A4060F30A2242F0806056
:1007000040F0FD7008607047002804BF012070476A
:100710002DE9F04381B042F20008C4F20208044619
:10072000D8F800000D4600F0070088420CD2D8F837
:10073000000020F007002843C8F80000D8F80000A7
:1007400000F00700A8426CD1206841F2040981073B
:10075000C4F2020917D5410705D5D9F8001041F4B4
:10076000E061C9F80010010705D5D9F8001041F47F
:100770006051C9F80010D9F80010A26821F0F0010A
:100780001143C9F80010C00742D1D8F8000000F0AA
:100790000700A8420CD9D8F8000020F00700284331
:1007A000C8F80000D8F8000000F00700A84238D1CF
:1007B0002068410707D5D9F80010E26821F4E0610C
:1007C0001143C9F80010000708D5D9F800002169C5
:1007D00020F4605040EAC100C9F80000D9F80020B8
:1007E00002F00C00082841F20020C0F27A0051D13A
:1007F00041F6E863C2F38341C0F60003595CD203BB
:100800003CD440F60010C0F23D00484342E000BF37
:10081000606802280AD001282AD159F8041C8903EB
:1008200008D4012001B0BDE8F08300BF59F8041CD2
:100830008901F6D5D9F8001021F003010843C9F861
:100840000000FFF7A5FE064641F28837D9F8000000
:10085000616800F00C00B0EB810F96D0FFF798FEB6
:10086000801BB842F2D9032001B0BDE8F08300BF7D
:1008700059F8041C8907D4D5DCE700BFD9F800205B
:1008800041F6CE63C2F34042C0F600039A5C48438F
:10089000B0FBF2F0D9F8001041F6D062C1F30311B9
:1008A000C0F60002515C40F2080220FA01F140F269
:1008B0000400C2F200000068C2F200021160FFF7FB
:1008C0008FFE002001B0BDE8F083000040F2080078
:1008D00041F20401C2F20000C4F20201006809689A
:1008E00041F6E062C1F30221C0F60002515CC8404B
:1008F0007047000040F2080041F20401C2F200001B
:10090000C4F202010068096841F6E062C1F3C22145
:10091000C0F60002515CC84070470000002804BFC8
:10092000012070472DE9F04182B00446007841F281
:100930000006C007C4F202060CD0706800F00C007C
:10094000042840F081803068800303D56068002867
:1009500000F04E81207880071BD5706810F00C0FD6
:1009600009D0706800F00C00082840F08B80706897
:10097000C00300F187803068800703D52069012813
:1009800040F036813068616920F0F80040EAC1002B
:1009900030602078000713D4207840072CD4E56914
:1009A000002D00F02081706800F00C00082840F055
:1009B000AF80012D40F00C81012002B0BDE8F08134
:1009C000A069002800F08C800020C4F242200121A0
:1009D000C0F88014FFF7DCFD054600BF706A800791
:1009E00000F1BA80FFF7D4FD401B0228F6D903209E
:1009F00002B0BDE8F08100BFF0695FEAC00808D42A
:100A0000F06940F08050F061F06900F08050009093
:100A1000009847F20007C4F200073868C0054DD4BB
:100A2000386840F480703860FFF7B2FD054600BFBB
:100A30003868C00542D4FFF7ABFD401B6428F7D9E6
:100A4000032002B0BDE8F081706800F00C000828B7
:100A500003D17068C0033FF576AF6068002800F0EE
:100A60000981B0F5A02F00F01D81B0F5803F00F0A6
:100A70001D81306820F480303060306820F48020A0
:100A800017E100BF2069002840F20000C4F24220B4
:100A900000F08C8001210160FFF77AFD054600BF60
:100AA000306880073FF56EAFFFF772FD401B0228EC
:100AB000F6D9032002B0BDE8F08100BFE06800284D
:100AC00000F09A80052800F0B180012800F0B28083
:100AD000306A20F001003062306A20F00400ACE09F
:100AE0000020C4F242200021C0F88014FFF750FD1E
:100AF000054600BF706A80077FF54EAFFFF748FDDF
:100B0000401B0228F6D9032002B0BDE8F08100BFE7
:100B10000027C4F2422700203866FFF739FD022D76
:100B200005460DD13068800140F1D680FFF730FDD9
:100B3000401B02284FF00300F4D902B0BDE8F08159
:100B4000306880014FD5FFF723FD401B02284FF08E
:100B50000300F5D9F1E700BF40F20800C2F200003F
:100B6000006844F6D351C1F26201A0FB0101480ABA
:100B7000019000BF00BF0198411E002801913FF481
:100B80000BAF00BF0198411E002801913FF404AF54
:100B900000BF0198411E002801913FF4FDAE00BF47
:100BA0000198411E00280191E4D1F5E60021016081
:100BB000FFF7EEFC054600BF306880077FF5E9AE21
:100BC000FFF7E6FC401B02284FF00300F4D9B4E71E
:100BD0007068216A00F480328A4209D1616A00F4A7
:100BE0007010884204D1002002B0BDE8F08100BF3F
:100BF000012002B0BDE8F081306A20F001003062CF
:100C0000306A20F004003062FFF7C2FC054641F272
:100C1000883700BF306A800722D5FFF7B9FC401B38
:100C2000B8424FF00300F5D987E700BF306A40F0C3
:100C300004003062306A40F001003062FFF7A8FC27
:100C4000054641F2883700BF306A800708D4FFF7B5
:100C50009FFC401BB842F7D9032002B0BDE8F081E9
:100C6000B8F1000F3FF59BAEF06920F08050F061C5
:100C700095E600BF306820F480303060306820F4A2
:100C800080203060FFF784FC054600BF3068800399
:100C90007FF560AEFFF77CFC401B64284FF003003B
:100CA000F4D94AE7306840F480203060306840F47E
:100CB00080303060FFF76CFC054600BF3068800371
:100CC0003FF548AEFFF764FC401B6428F6D90320CB
:100CD00002B0BDE8F08100BF206AB0F5803F05D1C9
:100CE0007168A26821F40031114371607168626A11
:100CF00021F4741111430843706001203866FFF736
:100D000047FC0446306880013FF56DAFFFF740FCBB
:100D1000001B02284FF00300F4D90EE7411E00200B
:100D2000B0EB116F1CBF012070474EF21002CEF2E3
:100D3000000251604EF62351CEF20001F0230B70F9
:100D4000072190601160704790F83C20012A04BF91
:100D500002207047B0B501F108053CCDD1E900CEC5
:100D600023F47C5322F470521A432EF4F0431A43B6
:100D70002CF4E0431A4324F4C0431A432A43C969BC
:100D800022F48042036811435964002180F83C102A
:100D9000BDE8B0400846704790F83C20012A4FF06B
:100DA000020236D010B580F83D200268D2F804E087
:100DB000D2F808C00C682EF07003234340F2FF7491
:100DC000C4F20004A24253600ADCB2F1804F13D097
:100DD00040F20043C4F200039A420DD011E000BF7C
:100DE00042F60043C4F201039A4205D040F60003E4
:100DF000C4F200039A4204D149682CF080031943DD
:100E000091600121002280F83D1080F83C20BDE86F
:100E10001040104670470000002804BF01207047B2
:100E200010B5044690F83D0028B9002084F83C0035
:100E3000204600F067F8022084F83D00206840F268
:100E4000FF730268C4F2000342F6004C9842C4F2F9
:100E5000010C15DCB0F1804F1AD040F20041C4F211
:100E60000001884214D0984218DCB0F1804F1DD0A8
:100E700040F20041C4F20001884217D01AE000BFDE
:100E8000604505D040F60001C4F200018842EAD175
:100E9000A16822F070020A439842E6DD604505D061
:100EA00040F60001C4F20001884203D1216922F416
:100EB00040720A43A36922F08001D4F804E0E2689A
:100EC000194360450160C262C0F828E002D161693F
:100ED000CCF8301001214161002084F8461084F8DC
:100EE0003E1084F83F1084F8401084F8411084F8D4
:100EF000421084F8431084F8441084F8451084F8B4
:100F00003D1010BD006842F60041C4F20101884264
:100F100018BF704781B041F21800C4F202000168A6
:100F200041F400610160006800F4006000900098E6
:100F300001B0704790F83C20012A4FF0020200F007
:100F4000C28080B580F83D20D0F800C04FF677729F
:100F5000DCF8083023EA0202CCF808200B683F2BAB
:100F60001CDD5F2B20DD602B50D0B3F5005F6DD012
:100F7000702B40F0A080D1E901E3C968DCF80820BB
:100F800043EA0E0322F47F4243EA01211143CCF8E5
:100F90000810DCF8081041F077018AE01F2B29DCEB
:100FA00063B3102B2AD086E0402B63D0502B40F047
:100FB0008280D1F804E0C968DCF82030DCF8202019
:100FC00022F00102CCF82020DCF8182022F0F002F8
:100FD00042EA011123F00A0242EA0E02CCF818108C
:100FE000CCF82020DCF8081041F0570121F0200156
:100FF0005FE000BF202B01D0302B5CD1DCF8081063
:1010000021F07001194341F0070152E0D1F804E0EA
:10101000C968DCF8203023F01003CCF82030DCF86D
:101020001830DCF8202023F4704322F0A00243EAB9
:10103000013142EA0E12CCF81810CCF82020DCF86E
:10104000081041F0670121F0100132E0D1E901E31D
:10105000C968DCF8082043EA0E0322F47F4243EA21
:1010600001211143CCF80810DCF8081041F480414C
:101070001FE000BFD1F804E0C968DCF82030DCF8DC
:10108000202022F00102CCF82020DCF8182022F0E9
:10109000F00242EA011123F00A0242EA0E02CCF801
:1010A0001810CCF82020DCF8081041F0470121F09E
:1010B0003001CCF808100121002280F83D1080F8A2
:1010C0003C20BDE8804010467047000080B586B0E7
:1010D000014640F60000C4F20100096800F5105313
:1010E00000229942049201D006B080BD41F218015D
:1010F000C4F202010A6842F004020A60096801F0C1
:101100000401019101994FF4407102910221039170
:10111000059102A9FFF72CF906B080BD90F83C308C
:10112000012B04BF022070474FEAB202032A00F2EB
:10113000EA802DE9F043DFE802F0033B77B100BF1E
:10114000036842F600461A6AC4F2010622F0010260
:101150001A621D6A1A465C6852F818CFB3428E684C
:10116000D1F800E025F0020545EA06050CD1CE686D
:10117000D1E9057824F4407425F00C0526F0040626
:101180003C43354344EA08042CF0730747EA0E0752
:101190005C609F614F6809695F631D629F6947F0EA
:1011A00008079F619F6927F004079F61A6E000BFC1
:1011B000036842F600461A6AC4F2010622F01002E1
:1011C0001A621D6A1A46D3F804C052F8184FB34287
:1011D0008E68D1F800E025F0200545EA06150FD10C
:1011E000CE68D1E905986FF0400725F0C00507EA01
:1011F000061635432CF4406748EA090647EA860C90
:1012000024F4E64444EA0E27C3F804C09F614F6803
:1012100009699F631D629F6947F400679F619F6929
:1012200027F480679F6168E0036842F600461A6A07
:10123000C4F2010622F480721A621D6A1A46D3F8BB
:1012400004C052F81CEFB3428E680C6825F4007598
:1012500045EA06250FD1CE68D1E90598360240F25D
:10126000FF4725F44065BE4335432CF4405748EA18
:10127000090647EA061C2EF073072743C3F804C08B
:10128000DF614F680969DF631D62DF6947F00807A6
:10129000DF61DF6927F00407DF612FE0036842F6B2
:1012A00000471A6AC4F2010722F480521A621A46F1
:1012B000D3F820C05D6852F81C4FD1F800E08E686A
:1012C000BB4204D14F6925F4804545EA87152CF4CB
:1012D000005747EA063724F4E64646EA0E265D60E4
:1012E000DE614E6809691E641F62DF6947F40067AA
:1012F000DF61DF6927F48067DF6109021368194342
:101300001160BDE8F043002180F83C1008467047AA
:10131000002804BF0120704710B5044690F83D0036
:1013200028B9002084F83C00204600F067F802202D
:1013300084F83D00206840F2FF730268C4F20003A5
:1013400042F6004C9842C4F2010C15DCB0F1804F1B
:101350001AD040F20041C4F20001884214D09842F1
:1013600018DCB0F1804F1DD040F20041C4F2000102
:10137000884217D01AE000BF604505D040F6000152
:10138000C4F200018842EAD1A16822F070020A4347
:101390009842E6DD604505D040F60001C4F2000148
:1013A000884203D1216922F440720A43A36922F0E2
:1013B0008001D4F804E0E268194360450160C2622C
:1013C000C0F828E002D16169CCF8301001214161F8
:1013D000002084F8461084F83E1084F83F1084F80A
:1013E000401084F8411084F8421084F8431084F8C7
:1013F000441084F8451084F83D1010BD704700007B
:1014000041B1082910D0042914BF00F1410200F1B4
:101410003F020BE090F83E20012A1CBF01207047DC
:10142000022280F83E2013E000F140021278012AE7
:101430001CBF012070470222082907D0042914BFCD
:1014400080F8412080F83F2002E000BF80F8402073
:10145000006801F01F010122036A8A4023EA0201A9
:101460000162036A42F64441C4F201011A43A1F148
:101470004403984202620FD040F2FF71C4F20001AF
:10148000884213DCB0F1804F1CD040F20041C4F21E
:101490000001884216D01AE00A6842F400420A604D
:1014A00040F2FF71C4F200018842EBDD42F60041D8
:1014B000C4F20101884205D040F60001C4F20001E7
:1014C000884204D1816801F00701062903D0016830
:1014D00041F00101016000207047000070470000EA
:1014E00070470000B0B582B0026805461068D36846
:1014F000546900F02F01202903F0200106D129B101
:10150000284602B0BDE8B04000F032BA5FEA007C85
:101510001EBF04F0010E03F4907414EB0E0441D1CD
:10152000296BC40618D5012916D113F0100113D068
:101530000020019010680190506801900198506956
:10154000400637D4A88DE98DEB8D002B18BF88425B
:1015500040F0D88002B0B0BD010659D513F080012B
:1015600056D095F83D002128F4D1A868B0F5805FE9
:1015700003D12869002800F0E580286A411C29620F
:1015800000785060E88C01380104E884E2D1D0682A
:1015900020F08000D060D06840F04000D06002B001
:1015A000B0BD00BFC40718BF13F4807342D1430716
:1015B00046D44CE0A86B01684B689CB2002CC9D0A3
:1015C000A98D8C42C6D2EB858369202B17D0D168B8
:1015D00021F48071D160516921F00101516151699B
:1015E00021F040015161202185F83E10002129633E
:1015F000D16821F01001D160FEF73EFEA98DE88D83
:10160000081A81B2284602B0BDE8B040FFF766BFB5
:1016100040069FD513F040009CD0D068202120F0D8
:101620004000D060284685F83D1002B0BDE8B040CB
:1016300000F088B92B6C43F001032B64430706D5F7
:10164000BEF1000F03D02B6C43F002032B64830721
:1016500006D5BEF1000F03D02B6C43F004032B64BE
:10166000BCF1000F06D55EEA010303D02B6C43F0FA
:1016700008032B642B6C002B3FF46CAF800604D561
:1016800019B1284600F074F92A685069296C00F0F5
:10169000400001F0080140182CD0D06820F4907070
:1016A000D060506920F001005061286B012803D1FF
:1016B000D06820F01000D060202085F83E00002087
:1016C00028635069400637D5506920F040005061CA
:1016D000A86B88B341F66511C0F600014163FEF7BF
:1016E000EFFD00283FF436AFA86B416B02B0BDE8B8
:1016F000B04008472846FFF7F3FE0020286402B0F8
:10170000B0BD00BFD368401A23F49073D36053690F
:1017100081B223F001035361202385F83E3000237A
:101720002B63D368284623F01003D36002B0BDE8D2
:10173000B040FFF7D3BE00BF284602B0BDE8B040BE
:10174000FFF7CEBE286A30F8021B6FF35F215160AD
:10175000286217E7002804BF0120704710B504462F
:1017600090F83D0028B9002084F83C00204600F0A5
:1017700061F8242084F83D002068D4E90212C3688F
:1017800023F40053C360036923F440531A430261F6
:10179000D4E904231143C268194341F20C639A430C
:1017A0001143C1604169A26921F44071114343F6BC
:1017B0000002C4F201029042416103D0FFF786F8B3
:1017C00002E000BFFFF796F8D4E90023192148434F
:1017D0009900B0FBF1F048F21F5CC5F2EB1CA0FBD6
:1017E0000C314FF69C734909C0F6FF7301FB0300EF
:1017F000322303EB0010A0FB0C03F02000EA53108F
:1018000000EB0110C3F343110844906010692021DC
:1018100020F490401061506920F02A005061D06897
:1018200040F40050D0600020206484F83D1084F81B
:101830003E1010BD70B586B040F60044C4F20104FD
:10184000006804F5305100268842049602D006B0A4
:1018500070BD00BF41F21800C4F20200016802AD81
:1018600041F480410160016801F4804101910199D6
:10187000016841F0080101600068294600F0080095
:1018800001900198402002900220039003200590CF
:101890002046FEF76DFD8020CDE902062046294650
:1018A0000496FEF765FD0420C4F2010001680022E1
:1018B00041F0E06141F00401016025200121FEF7C3
:1018C000E7FE2520FEF7D2FE06B070BD034690F875
:1018D0003E0020280AD100294FF0010018BF002A3D
:1018E00000D1704793F83C00012801D102207047D5
:1018F00000201863996222219A85DA85186483F89A
:101900003E10196883F83C00CA6842F48072CA60CD
:101910004A6942F001024A61CA6842F02002CA6084
:101920007047000040F27001C2F2000100684A688E
:10193000904218BF70470123081D01224B70FFF72A
:10194000C5BF000070470000FEE70000FEE7000092
:10195000FEE700007047000070470000FEF71EBE63
:1019600070470000406A0021C185C184FFF7B8BDFF
:1019700090F83E10222918BF704783680246B3F5DD
:10198000805F0DD152F8281F52F8183C93B90268B5
:1019900052686FF35F2221F8022B816210E000BFD2
:1019A00052F8281F0BB9036923B103685B6803F081
:1019B0007F0301E003685B680B70116801311160FF
:1019C000C18D01390A04C18500D070470168CA6819
:1019D00022F02002CA60CA6822F48072CA604A6992
:1019E00022F001024A61202280F83E20026B012A87
:1019F00018BFFFF797BF00220263CB6823F01003E4
:101A0000CB600B68DB0607D581B000920A680092B4
:101A100049680091009901B0818DFFF75FBD00001A
:101A200040F27400C2F20000FFF75CBDFEE7000068
:101A3000B0B5042888BFB0BD0C46DFE800F0031540
:101A4000272F410040F2B804C2F2000420460021D2
:101A5000002200F0D9F904F1140000210022BDE8B1
:101A6000B04000F0D1B900BF40F2B805C2F20005A5
:101A700028460121224600F0C7F905F11400012192
:101A80002246BDE8B04000F0BFB900BF40F2B80543
:101A9000C2F2000528460221224606E040F2B805BF
:101AA000C2F2000528460021002200F0ADF905F140
:101AB000140002212246BDE8B04000F0A5B900BFE5
:101AC00040F2B805C2F2000528460221224600F085
:101AD0009BF905F1140000210022BDE8B04000F0A0
:101AE00093B90000F0B581B040F2B80540F6004669
:101AF0000446C2F20005C4F201060027284631461A
:101B00004FF480422346009700F0AEF905F1140728
:101B10004FF0040C384631464FF400422346CDF8CE
:101B200000C000F0A1F928460021002200F06CF965
:101B300038460021002201B0BDE8F04000F064B951
:101B400098B0FEF739FD00240120CDE90644CDE927
:101B500004440590102006904FF4601002250A906E
:101B600001A8CDE902440195CDE90854FEF7D6FE5F
:101B700020B1EFF3108072B6FEE700BF0F20CDE971
:101B80000B054FF48060CDE90E040BA802210D94E3
:101B9000FEF7BAFD20B1EFF3108072B6FEE700BF8A
:101BA00041F21800C4F20200016840F6004441F01E
:101BB000200101600168C4F2010401F020010191DB
:101BC00001990168002241F00801016001684FF4A9
:101BD000404601F00801019101990168002541F09A
:101BE0000401016000684FF4404100F004000190DE
:101BF00001982046FEF7C6FC0120CDE9020502202F
:101C0000049001A920460196FEF7B2FB40F2E000E5
:101C100004F50051C2F2000040F2E7331795CDE918
:101C20001555CDE9125507953F2280E82600C0E9F9
:101C30000335C0E90555FFF7EFF828B1EFF3108041
:101C400072B600BFFEE700BF4FF48050149040F220
:101C5000E000C2F2000014A9FFF76CF920B1EFF325
:101C6000108072B6FEE700BF40F2E000C2F2000052
:101C7000FFF74EFB20B1EFF3108072B6FEE700BF16
:101C800040F2E000C2F2000012A9FFF785F828B187
:101C9000EFF3108072B600BFFEE700BF60200B902C
:101CA0000020CDE90C00CDE90E00CDE9100040F296
:101CB000E000C2F200000BA90022FFF72FFA28B1C2
:101CC000EFF3108072B600BFFEE700BF40F2E00005
:101CD000C2F200000BA90422FFF720FA20B1EFF3B3
:101CE000108072B6FEE700BF4FF40050069040F23D
:101CF000E0000025C2F2000001A90595CDE90355D9
:101D0000CDE901550895FFF71FF828B1EFF31080D2
:101D100072B600BFFEE700BF40F2E000C2F2000072
:101D2000FFF7D4F904F5305140F27004C2F2000418
:101D3000204640F8041F4FF416510C22C0E901154B
:101D4000C0E90355C0E90525C561FFF703FD28B1CA
:101D5000EFF3108072B600BFFEE700BF201D2146E2
:101D60000122FFF7B3FD40F2E000C2F20000FFF7EE
:101D7000B9FE6078012807D140F20C070025202623
:101D8000C2F20007002003E0FEE700BF65700120FB
:101D9000C107FDD12078A0F1420111290AD8DFE85E
:101DA00001F0150909091B0909090909210909098E
:101DB0000909272DA0F13001C9B209299EBF00EB06
:101DC000800006EB40003870E0E700BF3978022061
:101DD000FFF72EFEDAE700BF39780120FFF728FE73
:101DE000D4E700BF39780320FFF722FECEE700BF1B
:101DF00039780420FFF71CFEC8E700BF002000214F
:101E0000FFF716FEC2E70000B0B5154602290446EA
:101E100010D001291CD0002918BFB0BD2068A188AE
:101E20000022FEF7AFFBD4E902010022BDE8B0407A
:101E300000F02AB82068A1880122FEF7A3FBD4E9AC
:101E40000201C5F16402D2B2BDE8B04000F01CB896
:101E50002068A1880022FEF795FBD4E902012A46FA
:101E6000BDE8B04000F010B880B5DDF808E09C4651
:101E700003460160828060467146C3E902CEBDE838
:101E80008040FFF7BDBA000000684FEAB101C36AA5
:101E9000032988BF70475A4348F21F53C5F2EB131A
:101EA000A2FB03235B09DFE801F0030F070B00BF70
:101EB00099B24163704700BF99B2C163704700BFD8
:101EC00099B20164704700BF99B281637047010203
:101ED00000000000000000000102030406070809DA
:101EE00000000000010203040203040506070809BC
:101EF0000A0B0C0D0E0F1010181F00080000002018
:101F00001000000050010008281F000810000020E9
:101F10002007000070010008010000001000000010
:081F20000024F400640000003D
:04000005080000ED02
:00000001FF
